{
  "_format": "hh-sol-artifact-1",
  "contractName": "TorNFT",
  "sourceName": "contracts/SnowingTiranaNFT.sol",
  "abi": [
    {
      "inputs": [],
      "stateMutability": "nonpayable",
      "type": "constructor"
    },
    {
      "anonymous": false,
      "inputs": [
        {
          "indexed": true,
          "internalType": "address",
          "name": "owner",
          "type": "address"
        },
        {
          "indexed": true,
          "internalType": "address",
          "name": "approved",
          "type": "address"
        },
        {
          "indexed": true,
          "internalType": "uint256",
          "name": "tokenId",
          "type": "uint256"
        }
      ],
      "name": "Approval",
      "type": "event"
    },
    {
      "anonymous": false,
      "inputs": [
        {
          "indexed": true,
          "internalType": "address",
          "name": "owner",
          "type": "address"
        },
        {
          "indexed": true,
          "internalType": "address",
          "name": "operator",
          "type": "address"
        },
        {
          "indexed": false,
          "internalType": "bool",
          "name": "approved",
          "type": "bool"
        }
      ],
      "name": "ApprovalForAll",
      "type": "event"
    },
    {
      "anonymous": false,
      "inputs": [
        {
          "indexed": true,
          "internalType": "address",
          "name": "previousOwner",
          "type": "address"
        },
        {
          "indexed": true,
          "internalType": "address",
          "name": "newOwner",
          "type": "address"
        }
      ],
      "name": "OwnershipTransferred",
      "type": "event"
    },
    {
      "anonymous": false,
      "inputs": [
        {
          "indexed": true,
          "internalType": "address",
          "name": "from",
          "type": "address"
        },
        {
          "indexed": true,
          "internalType": "address",
          "name": "to",
          "type": "address"
        },
        {
          "indexed": true,
          "internalType": "uint256",
          "name": "tokenId",
          "type": "uint256"
        }
      ],
      "name": "Transfer",
      "type": "event"
    },
    {
      "inputs": [
        {
          "internalType": "address",
          "name": "to",
          "type": "address"
        },
        {
          "internalType": "uint256",
          "name": "tokenId",
          "type": "uint256"
        }
      ],
      "name": "approve",
      "outputs": [],
      "stateMutability": "nonpayable",
      "type": "function"
    },
    {
      "inputs": [
        {
          "internalType": "address",
          "name": "owner",
          "type": "address"
        }
      ],
      "name": "balanceOf",
      "outputs": [
        {
          "internalType": "uint256",
          "name": "",
          "type": "uint256"
        }
      ],
      "stateMutability": "view",
      "type": "function"
    },
    {
      "inputs": [
        {
          "internalType": "address",
          "name": "receiver",
          "type": "address"
        },
        {
          "internalType": "string",
          "name": "tokenURI",
          "type": "string"
        }
      ],
      "name": "createNFT",
      "outputs": [
        {
          "internalType": "uint256",
          "name": "",
          "type": "uint256"
        }
      ],
      "stateMutability": "nonpayable",
      "type": "function"
    },
    {
      "inputs": [
        {
          "internalType": "uint256",
          "name": "tokenId",
          "type": "uint256"
        }
      ],
      "name": "getApproved",
      "outputs": [
        {
          "internalType": "address",
          "name": "",
          "type": "address"
        }
      ],
      "stateMutability": "view",
      "type": "function"
    },
    {
      "inputs": [
        {
          "internalType": "address",
          "name": "owner",
          "type": "address"
        },
        {
          "internalType": "address",
          "name": "operator",
          "type": "address"
        }
      ],
      "name": "isApprovedForAll",
      "outputs": [
        {
          "internalType": "bool",
          "name": "",
          "type": "bool"
        }
      ],
      "stateMutability": "view",
      "type": "function"
    },
    {
      "inputs": [],
      "name": "name",
      "outputs": [
        {
          "internalType": "string",
          "name": "",
          "type": "string"
        }
      ],
      "stateMutability": "view",
      "type": "function"
    },
    {
      "inputs": [],
      "name": "owner",
      "outputs": [
        {
          "internalType": "address",
          "name": "",
          "type": "address"
        }
      ],
      "stateMutability": "view",
      "type": "function"
    },
    {
      "inputs": [
        {
          "internalType": "uint256",
          "name": "tokenId",
          "type": "uint256"
        }
      ],
      "name": "ownerOf",
      "outputs": [
        {
          "internalType": "address",
          "name": "",
          "type": "address"
        }
      ],
      "stateMutability": "view",
      "type": "function"
    },
    {
      "inputs": [],
      "name": "renounceOwnership",
      "outputs": [],
      "stateMutability": "nonpayable",
      "type": "function"
    },
    {
      "inputs": [
        {
          "internalType": "address",
          "name": "from",
          "type": "address"
        },
        {
          "internalType": "address",
          "name": "to",
          "type": "address"
        },
        {
          "internalType": "uint256",
          "name": "tokenId",
          "type": "uint256"
        }
      ],
      "name": "safeTransferFrom",
      "outputs": [],
      "stateMutability": "nonpayable",
      "type": "function"
    },
    {
      "inputs": [
        {
          "internalType": "address",
          "name": "from",
          "type": "address"
        },
        {
          "internalType": "address",
          "name": "to",
          "type": "address"
        },
        {
          "internalType": "uint256",
          "name": "tokenId",
          "type": "uint256"
        },
        {
          "internalType": "bytes",
          "name": "_data",
          "type": "bytes"
        }
      ],
      "name": "safeTransferFrom",
      "outputs": [],
      "stateMutability": "nonpayable",
      "type": "function"
    },
    {
      "inputs": [
        {
          "internalType": "address",
          "name": "operator",
          "type": "address"
        },
        {
          "internalType": "bool",
          "name": "approved",
          "type": "bool"
        }
      ],
      "name": "setApprovalForAll",
      "outputs": [],
      "stateMutability": "nonpayable",
      "type": "function"
    },
    {
      "inputs": [
        {
          "internalType": "bytes4",
          "name": "interfaceId",
          "type": "bytes4"
        }
      ],
      "name": "supportsInterface",
      "outputs": [
        {
          "internalType": "bool",
          "name": "",
          "type": "bool"
        }
      ],
      "stateMutability": "view",
      "type": "function"
    },
    {
      "inputs": [],
      "name": "symbol",
      "outputs": [
        {
          "internalType": "string",
          "name": "",
          "type": "string"
        }
      ],
      "stateMutability": "view",
      "type": "function"
    },
    {
      "inputs": [
        {
          "internalType": "uint256",
          "name": "tokenId",
          "type": "uint256"
        }
      ],
      "name": "tokenURI",
      "outputs": [
        {
          "internalType": "string",
          "name": "",
          "type": "string"
        }
      ],
      "stateMutability": "view",
      "type": "function"
    },
    {
      "inputs": [
        {
          "internalType": "address",
          "name": "from",
          "type": "address"
        },
        {
          "internalType": "address",
          "name": "to",
          "type": "address"
        },
        {
          "internalType": "uint256",
          "name": "tokenId",
          "type": "uint256"
        }
      ],
      "name": "transferFrom",
      "outputs": [],
      "stateMutability": "nonpayable",
      "type": "function"
    },
    {
      "inputs": [
        {
          "internalType": "address",
          "name": "newOwner",
          "type": "address"
        }
      ],
      "name": "transferOwnership",
      "outputs": [],
      "stateMutability": "nonpayable",
      "type": "function"
    }
  ],
  "bytecode": "0x60806040523480156200001157600080fd5b506040518060400160405280600d81526020017f536e6f77696e67546972616e61000000000000000000000000000000000000008152506040518060400160405280600381526020017f534e540000000000000000000000000000000000000000000000000000000000815250816000908051906020019062000096929190620001a6565b508060019080519060200190620000af929190620001a6565b505050620000d2620000c6620000d860201b60201c565b620000e060201b60201c565b620002bb565b600033905090565b6000600660009054906101000a900473ffffffffffffffffffffffffffffffffffffffff16905081600660006101000a81548173ffffffffffffffffffffffffffffffffffffffff021916908373ffffffffffffffffffffffffffffffffffffffff1602179055508173ffffffffffffffffffffffffffffffffffffffff168173ffffffffffffffffffffffffffffffffffffffff167f8be0079c531659141344cd1fd0a4f28419497f9722a3daafe3b4186f6b6457e060405160405180910390a35050565b828054620001b49062000256565b90600052602060002090601f016020900481019282620001d8576000855562000224565b82601f10620001f357805160ff191683800117855562000224565b8280016001018555821562000224579182015b828111156200022357825182559160200191906001019062000206565b5b50905062000233919062000237565b5090565b5b808211156200025257600081600090555060010162000238565b5090565b600060028204905060018216806200026f57607f821691505b602082108114156200028657620002856200028c565b5b50919050565b7f4e487b7100000000000000000000000000000000000000000000000000000000600052602260045260246000fd5b612e0e80620002cb6000396000f3fe608060405234801561001057600080fd5b506004361061010b5760003560e01c8063715018a6116100a2578063a561403311610071578063a5614033146102a4578063b88d4fde146102d4578063c87b56dd146102f0578063e985e9c514610320578063f2fde38b146103505761010b565b8063715018a6146102425780638da5cb5b1461024c57806395d89b411461026a578063a22cb465146102885761010b565b806323b872dd116100de57806323b872dd146101aa57806342842e0e146101c65780636352211e146101e257806370a08231146102125761010b565b806301ffc9a71461011057806306fdde0314610140578063081812fc1461015e578063095ea7b31461018e575b600080fd5b61012a60048036038101906101259190611e00565b61036c565b6040516101379190612235565b60405180910390f35b61014861044e565b6040516101559190612250565b60405180910390f35b61017860048036038101906101739190611e5a565b6104e0565b60405161018591906121ce565b60405180910390f35b6101a860048036038101906101a39190611dc0565b610565565b005b6101c460048036038101906101bf9190611c4e565b61067d565b005b6101e060048036038101906101db9190611c4e565b6106dd565b005b6101fc60048036038101906101f79190611e5a565b6106fd565b60405161020991906121ce565b60405180910390f35b61022c60048036038101906102279190611be1565b6107af565b6040516102399190612492565b60405180910390f35b61024a610867565b005b6102546108ef565b60405161026191906121ce565b60405180910390f35b610272610919565b60405161027f9190612250565b60405180910390f35b6102a2600480360381019061029d9190611d24565b6109ab565b005b6102be60048036038101906102b99190611d64565b610b2c565b6040516102cb9190612492565b60405180910390f35b6102ee60048036038101906102e99190611ca1565b610be0565b005b61030a60048036038101906103059190611e5a565b610c42565b6040516103179190612250565b60405180910390f35b61033a60048036038101906103359190611c0e565b610ce9565b6040516103479190612235565b60405180910390f35b61036a60048036038101906103659190611be1565b610d7d565b005b60007f80ac58cd000000000000000000000000000000000000000000000000000000007bffffffffffffffffffffffffffffffffffffffffffffffffffffffff1916827bffffffffffffffffffffffffffffffffffffffffffffffffffffffff1916148061043757507f5b5e139f000000000000000000000000000000000000000000000000000000007bffffffffffffffffffffffffffffffffffffffffffffffffffffffff1916827bffffffffffffffffffffffffffffffffffffffffffffffffffffffff1916145b80610447575061044682610e75565b5b9050919050565b60606000805461045d906126e8565b80601f0160208091040260200160405190810160405280929190818152602001828054610489906126e8565b80156104d65780601f106104ab576101008083540402835291602001916104d6565b820191906000526020600020905b8154815290600101906020018083116104b957829003601f168201915b5050505050905090565b60006104eb82610edf565b61052a576040517f08c379a0000000000000000000000000000000000000000000000000000000008152600401610521906123b2565b60405180910390fd5b6004600083815260200190815260200160002060009054906101000a900473ffffffffffffffffffffffffffffffffffffffff169050919050565b6000610570826106fd565b90508073ffffffffffffffffffffffffffffffffffffffff168373ffffffffffffffffffffffffffffffffffffffff1614156105e1576040517f08c379a00000000000000000000000000000000000000000000000000000000081526004016105d890612452565b60405180910390fd5b8073ffffffffffffffffffffffffffffffffffffffff16610600610f4b565b73ffffffffffffffffffffffffffffffffffffffff16148061062f575061062e81610629610f4b565b610ce9565b5b61066e576040517f08c379a000000000000000000000000000000000000000000000000000000000815260040161066590612332565b60405180910390fd5b6106788383610f53565b505050565b61068e610688610f4b565b8261100c565b6106cd576040517f08c379a00000000000000000000000000000000000000000000000000000000081526004016106c490612472565b60405180910390fd5b6106d88383836110ea565b505050565b6106f883838360405180602001604052806000815250610be0565b505050565b6000806002600084815260200190815260200160002060009054906101000a900473ffffffffffffffffffffffffffffffffffffffff169050600073ffffffffffffffffffffffffffffffffffffffff168173ffffffffffffffffffffffffffffffffffffffff1614156107a6576040517f08c379a000000000000000000000000000000000000000000000000000000000815260040161079d90612372565b60405180910390fd5b80915050919050565b60008073ffffffffffffffffffffffffffffffffffffffff168273ffffffffffffffffffffffffffffffffffffffff161415610820576040517f08c379a000000000000000000000000000000000000000000000000000000000815260040161081790612352565b60405180910390fd5b600360008373ffffffffffffffffffffffffffffffffffffffff1673ffffffffffffffffffffffffffffffffffffffff168152602001908152602001600020549050919050565b61086f610f4b565b73ffffffffffffffffffffffffffffffffffffffff1661088d6108ef565b73ffffffffffffffffffffffffffffffffffffffff16146108e3576040517f08c379a00000000000000000000000000000000000000000000000000000000081526004016108da906123f2565b60405180910390fd5b6108ed6000611346565b565b6000600660009054906101000a900473ffffffffffffffffffffffffffffffffffffffff16905090565b606060018054610928906126e8565b80601f0160208091040260200160405190810160405280929190818152602001828054610954906126e8565b80156109a15780601f10610976576101008083540402835291602001916109a1565b820191906000526020600020905b81548152906001019060200180831161098457829003601f168201915b5050505050905090565b6109b3610f4b565b73ffffffffffffffffffffffffffffffffffffffff168273ffffffffffffffffffffffffffffffffffffffff161415610a21576040517f08c379a0000000000000000000000000000000000000000000000000000000008152600401610a18906122f2565b60405180910390fd5b8060056000610a2e610f4b565b73ffffffffffffffffffffffffffffffffffffffff1673ffffffffffffffffffffffffffffffffffffffff16815260200190815260200160002060008473ffffffffffffffffffffffffffffffffffffffff1673ffffffffffffffffffffffffffffffffffffffff16815260200190815260200160002060006101000a81548160ff0219169083151502179055508173ffffffffffffffffffffffffffffffffffffffff16610adb610f4b565b73ffffffffffffffffffffffffffffffffffffffff167f17307eab39ab6107e8899845ad3d59bd9653f200f220920489ca2b5937696c3183604051610b209190612235565b60405180910390a35050565b6000610b36610f4b565b73ffffffffffffffffffffffffffffffffffffffff16610b546108ef565b73ffffffffffffffffffffffffffffffffffffffff1614610baa576040517f08c379a0000000000000000000000000000000000000000000000000000000008152600401610ba1906123f2565b60405180910390fd5b610bb4600861140c565b6000610bc06008611422565b9050610bcc8482611430565b610bd681846115fe565b8091505092915050565b610bf1610beb610f4b565b8361100c565b610c30576040517f08c379a0000000000000000000000000000000000000000000000000000000008152600401610c2790612472565b60405180910390fd5b610c3c84848484611672565b50505050565b6060610c4d82610edf565b610c8c576040517f08c379a0000000000000000000000000000000000000000000000000000000008152600401610c8390612432565b60405180910390fd5b6000610c966116ce565b90506000815111610cb65760405180602001604052806000815250610ce1565b80610cc0846116e5565b604051602001610cd19291906121aa565b6040516020818303038152906040525b915050919050565b6000600560008473ffffffffffffffffffffffffffffffffffffffff1673ffffffffffffffffffffffffffffffffffffffff16815260200190815260200160002060008373ffffffffffffffffffffffffffffffffffffffff1673ffffffffffffffffffffffffffffffffffffffff16815260200190815260200160002060009054906101000a900460ff16905092915050565b610d85610f4b565b73ffffffffffffffffffffffffffffffffffffffff16610da36108ef565b73ffffffffffffffffffffffffffffffffffffffff1614610df9576040517f08c379a0000000000000000000000000000000000000000000000000000000008152600401610df0906123f2565b60405180910390fd5b600073ffffffffffffffffffffffffffffffffffffffff168173ffffffffffffffffffffffffffffffffffffffff161415610e69576040517f08c379a0000000000000000000000000000000000000000000000000000000008152600401610e6090612292565b60405180910390fd5b610e7281611346565b50565b60007f01ffc9a7000000000000000000000000000000000000000000000000000000007bffffffffffffffffffffffffffffffffffffffffffffffffffffffff1916827bffffffffffffffffffffffffffffffffffffffffffffffffffffffff1916149050919050565b60008073ffffffffffffffffffffffffffffffffffffffff166002600084815260200190815260200160002060009054906101000a900473ffffffffffffffffffffffffffffffffffffffff1673ffffffffffffffffffffffffffffffffffffffff1614159050919050565b600033905090565b816004600083815260200190815260200160002060006101000a81548173ffffffffffffffffffffffffffffffffffffffff021916908373ffffffffffffffffffffffffffffffffffffffff160217905550808273ffffffffffffffffffffffffffffffffffffffff16610fc6836106fd565b73ffffffffffffffffffffffffffffffffffffffff167f8c5be1e5ebec7d5bd14f71427d1e84f3dd0314c0f7b2291e5b200ac8c7c3b92560405160405180910390a45050565b600061101782610edf565b611056576040517f08c379a000000000000000000000000000000000000000000000000000000000815260040161104d90612312565b60405180910390fd5b6000611061836106fd565b90508073ffffffffffffffffffffffffffffffffffffffff168473ffffffffffffffffffffffffffffffffffffffff1614806110d057508373ffffffffffffffffffffffffffffffffffffffff166110b8846104e0565b73ffffffffffffffffffffffffffffffffffffffff16145b806110e157506110e08185610ce9565b5b91505092915050565b8273ffffffffffffffffffffffffffffffffffffffff1661110a826106fd565b73ffffffffffffffffffffffffffffffffffffffff1614611160576040517f08c379a000000000000000000000000000000000000000000000000000000000815260040161115790612412565b60405180910390fd5b600073ffffffffffffffffffffffffffffffffffffffff168273ffffffffffffffffffffffffffffffffffffffff1614156111d0576040517f08c379a00000000000000000000000000000000000000000000000000000000081526004016111c7906122d2565b60405180910390fd5b6111db838383611846565b6111e6600082610f53565b6001600360008573ffffffffffffffffffffffffffffffffffffffff1673ffffffffffffffffffffffffffffffffffffffff168152602001908152602001600020600082825461123691906125fe565b925050819055506001600360008473ffffffffffffffffffffffffffffffffffffffff1673ffffffffffffffffffffffffffffffffffffffff168152602001908152602001600020600082825461128d9190612577565b92505081905550816002600083815260200190815260200160002060006101000a81548173ffffffffffffffffffffffffffffffffffffffff021916908373ffffffffffffffffffffffffffffffffffffffff160217905550808273ffffffffffffffffffffffffffffffffffffffff168473ffffffffffffffffffffffffffffffffffffffff167fddf252ad1be2c89b69c2b068fc378daa952ba7f163c4a11628f55a4df523b3ef60405160405180910390a4505050565b6000600660009054906101000a900473ffffffffffffffffffffffffffffffffffffffff16905081600660006101000a81548173ffffffffffffffffffffffffffffffffffffffff021916908373ffffffffffffffffffffffffffffffffffffffff1602179055508173ffffffffffffffffffffffffffffffffffffffff168173ffffffffffffffffffffffffffffffffffffffff167f8be0079c531659141344cd1fd0a4f28419497f9722a3daafe3b4186f6b6457e060405160405180910390a35050565b6001816000016000828254019250508190555050565b600081600001549050919050565b600073ffffffffffffffffffffffffffffffffffffffff168273ffffffffffffffffffffffffffffffffffffffff1614156114a0576040517f08c379a000000000000000000000000000000000000000000000000000000000815260040161149790612392565b60405180910390fd5b6114a981610edf565b156114e9576040517f08c379a00000000000000000000000000000000000000000000000000000000081526004016114e0906122b2565b60405180910390fd5b6114f560008383611846565b6001600360008473ffffffffffffffffffffffffffffffffffffffff1673ffffffffffffffffffffffffffffffffffffffff16815260200190815260200160002060008282546115459190612577565b92505081905550816002600083815260200190815260200160002060006101000a81548173ffffffffffffffffffffffffffffffffffffffff021916908373ffffffffffffffffffffffffffffffffffffffff160217905550808273ffffffffffffffffffffffffffffffffffffffff16600073ffffffffffffffffffffffffffffffffffffffff167fddf252ad1be2c89b69c2b068fc378daa952ba7f163c4a11628f55a4df523b3ef60405160405180910390a45050565b61160782610edf565b611646576040517f08c379a000000000000000000000000000000000000000000000000000000000815260040161163d906123d2565b60405180910390fd5b8060076000848152602001908152602001600020908051906020019061166d9291906119f5565b505050565b61167d8484846110ea565b6116898484848461184b565b6116c8576040517f08c379a00000000000000000000000000000000000000000000000000000000081526004016116bf90612272565b60405180910390fd5b50505050565b606060405180602001604052806000815250905090565b6060600082141561172d576040518060400160405280600181526020017f30000000000000000000000000000000000000000000000000000000000000008152509050611841565b600082905060005b6000821461175f5780806117489061274b565b915050600a8261175891906125cd565b9150611735565b60008167ffffffffffffffff81111561177b5761177a612881565b5b6040519080825280601f01601f1916602001820160405280156117ad5781602001600182028036833780820191505090505b5090505b6000851461183a576001826117c691906125fe565b9150600a856117d59190612794565b60306117e19190612577565b60f81b8183815181106117f7576117f6612852565b5b60200101907effffffffffffffffffffffffffffffffffffffffffffffffffffffffffffff1916908160001a905350600a8561183391906125cd565b94506117b1565b8093505050505b919050565b505050565b600061186c8473ffffffffffffffffffffffffffffffffffffffff166119e2565b156119d5578373ffffffffffffffffffffffffffffffffffffffff1663150b7a02611895610f4b565b8786866040518563ffffffff1660e01b81526004016118b794939291906121e9565b602060405180830381600087803b1580156118d157600080fd5b505af192505050801561190257506040513d601f19601f820116820180604052508101906118ff9190611e2d565b60015b611985573d8060008114611932576040519150601f19603f3d011682016040523d82523d6000602084013e611937565b606091505b5060008151141561197d576040517f08c379a000000000000000000000000000000000000000000000000000000000815260040161197490612272565b60405180910390fd5b805181602001fd5b63150b7a0260e01b7bffffffffffffffffffffffffffffffffffffffffffffffffffffffff1916817bffffffffffffffffffffffffffffffffffffffffffffffffffffffff1916149150506119da565b600190505b949350505050565b600080823b905060008111915050919050565b828054611a01906126e8565b90600052602060002090601f016020900481019282611a235760008555611a6a565b82601f10611a3c57805160ff1916838001178555611a6a565b82800160010185558215611a6a579182015b82811115611a69578251825591602001919060010190611a4e565b5b509050611a779190611a7b565b5090565b5b80821115611a94576000816000905550600101611a7c565b5090565b6000611aab611aa6846124d2565b6124ad565b905082815260208101848484011115611ac757611ac66128b5565b5b611ad28482856126a6565b509392505050565b6000611aed611ae884612503565b6124ad565b905082815260208101848484011115611b0957611b086128b5565b5b611b148482856126a6565b509392505050565b600081359050611b2b81612d7c565b92915050565b600081359050611b4081612d93565b92915050565b600081359050611b5581612daa565b92915050565b600081519050611b6a81612daa565b92915050565b600082601f830112611b8557611b846128b0565b5b8135611b95848260208601611a98565b91505092915050565b600082601f830112611bb357611bb26128b0565b5b8135611bc3848260208601611ada565b91505092915050565b600081359050611bdb81612dc1565b92915050565b600060208284031215611bf757611bf66128bf565b5b6000611c0584828501611b1c565b91505092915050565b60008060408385031215611c2557611c246128bf565b5b6000611c3385828601611b1c565b9250506020611c4485828601611b1c565b9150509250929050565b600080600060608486031215611c6757611c666128bf565b5b6000611c7586828701611b1c565b9350506020611c8686828701611b1c565b9250506040611c9786828701611bcc565b9150509250925092565b60008060008060808587031215611cbb57611cba6128bf565b5b6000611cc987828801611b1c565b9450506020611cda87828801611b1c565b9350506040611ceb87828801611bcc565b925050606085013567ffffffffffffffff811115611d0c57611d0b6128ba565b5b611d1887828801611b70565b91505092959194509250565b60008060408385031215611d3b57611d3a6128bf565b5b6000611d4985828601611b1c565b9250506020611d5a85828601611b31565b9150509250929050565b60008060408385031215611d7b57611d7a6128bf565b5b6000611d8985828601611b1c565b925050602083013567ffffffffffffffff811115611daa57611da96128ba565b5b611db685828601611b9e565b9150509250929050565b60008060408385031215611dd757611dd66128bf565b5b6000611de585828601611b1c565b9250506020611df685828601611bcc565b9150509250929050565b600060208284031215611e1657611e156128bf565b5b6000611e2484828501611b46565b91505092915050565b600060208284031215611e4357611e426128bf565b5b6000611e5184828501611b5b565b91505092915050565b600060208284031215611e7057611e6f6128bf565b5b6000611e7e84828501611bcc565b91505092915050565b611e9081612632565b82525050565b611e9f81612644565b82525050565b6000611eb082612534565b611eba818561254a565b9350611eca8185602086016126b5565b611ed3816128c4565b840191505092915050565b6000611ee98261253f565b611ef3818561255b565b9350611f038185602086016126b5565b611f0c816128c4565b840191505092915050565b6000611f228261253f565b611f2c818561256c565b9350611f3c8185602086016126b5565b80840191505092915050565b6000611f5560328361255b565b9150611f60826128d5565b604082019050919050565b6000611f7860268361255b565b9150611f8382612924565b604082019050919050565b6000611f9b601c8361255b565b9150611fa682612973565b602082019050919050565b6000611fbe60248361255b565b9150611fc98261299c565b604082019050919050565b6000611fe160198361255b565b9150611fec826129eb565b602082019050919050565b6000612004602c8361255b565b915061200f82612a14565b604082019050919050565b600061202760388361255b565b915061203282612a63565b604082019050919050565b600061204a602a8361255b565b915061205582612ab2565b604082019050919050565b600061206d60298361255b565b915061207882612b01565b604082019050919050565b600061209060208361255b565b915061209b82612b50565b602082019050919050565b60006120b3602c8361255b565b91506120be82612b79565b604082019050919050565b60006120d6602c8361255b565b91506120e182612bc8565b604082019050919050565b60006120f960208361255b565b915061210482612c17565b602082019050919050565b600061211c60298361255b565b915061212782612c40565b604082019050919050565b600061213f602f8361255b565b915061214a82612c8f565b604082019050919050565b600061216260218361255b565b915061216d82612cde565b604082019050919050565b600061218560318361255b565b915061219082612d2d565b604082019050919050565b6121a48161269c565b82525050565b60006121b68285611f17565b91506121c28284611f17565b91508190509392505050565b60006020820190506121e36000830184611e87565b92915050565b60006080820190506121fe6000830187611e87565b61220b6020830186611e87565b612218604083018561219b565b818103606083015261222a8184611ea5565b905095945050505050565b600060208201905061224a6000830184611e96565b92915050565b6000602082019050818103600083015261226a8184611ede565b905092915050565b6000602082019050818103600083015261228b81611f48565b9050919050565b600060208201905081810360008301526122ab81611f6b565b9050919050565b600060208201905081810360008301526122cb81611f8e565b9050919050565b600060208201905081810360008301526122eb81611fb1565b9050919050565b6000602082019050818103600083015261230b81611fd4565b9050919050565b6000602082019050818103600083015261232b81611ff7565b9050919050565b6000602082019050818103600083015261234b8161201a565b9050919050565b6000602082019050818103600083015261236b8161203d565b9050919050565b6000602082019050818103600083015261238b81612060565b9050919050565b600060208201905081810360008301526123ab81612083565b9050919050565b600060208201905081810360008301526123cb816120a6565b9050919050565b600060208201905081810360008301526123eb816120c9565b9050919050565b6000602082019050818103600083015261240b816120ec565b9050919050565b6000602082019050818103600083015261242b8161210f565b9050919050565b6000602082019050818103600083015261244b81612132565b9050919050565b6000602082019050818103600083015261246b81612155565b9050919050565b6000602082019050818103600083015261248b81612178565b9050919050565b60006020820190506124a7600083018461219b565b92915050565b60006124b76124c8565b90506124c3828261271a565b919050565b6000604051905090565b600067ffffffffffffffff8211156124ed576124ec612881565b5b6124f6826128c4565b9050602081019050919050565b600067ffffffffffffffff82111561251e5761251d612881565b5b612527826128c4565b9050602081019050919050565b600081519050919050565b600081519050919050565b600082825260208201905092915050565b600082825260208201905092915050565b600081905092915050565b60006125828261269c565b915061258d8361269c565b9250827fffffffffffffffffffffffffffffffffffffffffffffffffffffffffffffffff038211156125c2576125c16127c5565b5b828201905092915050565b60006125d88261269c565b91506125e38361269c565b9250826125f3576125f26127f4565b5b828204905092915050565b60006126098261269c565b91506126148361269c565b925082821015612627576126266127c5565b5b828203905092915050565b600061263d8261267c565b9050919050565b60008115159050919050565b60007fffffffff0000000000000000000000000000000000000000000000000000000082169050919050565b600073ffffffffffffffffffffffffffffffffffffffff82169050919050565b6000819050919050565b82818337600083830152505050565b60005b838110156126d35780820151818401526020810190506126b8565b838111156126e2576000848401525b50505050565b6000600282049050600182168061270057607f821691505b6020821081141561271457612713612823565b5b50919050565b612723826128c4565b810181811067ffffffffffffffff8211171561274257612741612881565b5b80604052505050565b60006127568261269c565b91507fffffffffffffffffffffffffffffffffffffffffffffffffffffffffffffffff821415612789576127886127c5565b5b600182019050919050565b600061279f8261269c565b91506127aa8361269c565b9250826127ba576127b96127f4565b5b828206905092915050565b7f4e487b7100000000000000000000000000000000000000000000000000000000600052601160045260246000fd5b7f4e487b7100000000000000000000000000000000000000000000000000000000600052601260045260246000fd5b7f4e487b7100000000000000000000000000000000000000000000000000000000600052602260045260246000fd5b7f4e487b7100000000000000000000000000000000000000000000000000000000600052603260045260246000fd5b7f4e487b7100000000000000000000000000000000000000000000000000000000600052604160045260246000fd5b600080fd5b600080fd5b600080fd5b600080fd5b6000601f19601f8301169050919050565b7f4552433732313a207472616e7366657220746f206e6f6e20455243373231526560008201527f63656976657220696d706c656d656e7465720000000000000000000000000000602082015250565b7f4f776e61626c653a206e6577206f776e657220697320746865207a65726f206160008201527f6464726573730000000000000000000000000000000000000000000000000000602082015250565b7f4552433732313a20746f6b656e20616c7265616479206d696e74656400000000600082015250565b7f4552433732313a207472616e7366657220746f20746865207a65726f2061646460008201527f7265737300000000000000000000000000000000000000000000000000000000602082015250565b7f4552433732313a20617070726f766520746f2063616c6c657200000000000000600082015250565b7f4552433732313a206f70657261746f7220717565727920666f72206e6f6e657860008201527f697374656e7420746f6b656e0000000000000000000000000000000000000000602082015250565b7f4552433732313a20617070726f76652063616c6c6572206973206e6f74206f7760008201527f6e6572206e6f7220617070726f76656420666f7220616c6c0000000000000000602082015250565b7f4552433732313a2062616c616e636520717565727920666f7220746865207a6560008201527f726f206164647265737300000000000000000000000000000000000000000000602082015250565b7f4552433732313a206f776e657220717565727920666f72206e6f6e657869737460008201527f656e7420746f6b656e0000000000000000000000000000000000000000000000602082015250565b7f4552433732313a206d696e7420746f20746865207a65726f2061646472657373600082015250565b7f4552433732313a20617070726f76656420717565727920666f72206e6f6e657860008201527f697374656e7420746f6b656e0000000000000000000000000000000000000000602082015250565b7f4552433732314d657461646174613a2055524920736574206f66206e6f6e657860008201527f697374656e7420746f6b656e0000000000000000000000000000000000000000602082015250565b7f4f776e61626c653a2063616c6c6572206973206e6f7420746865206f776e6572600082015250565b7f4552433732313a207472616e73666572206f6620746f6b656e2074686174206960008201527f73206e6f74206f776e0000000000000000000000000000000000000000000000602082015250565b7f4552433732314d657461646174613a2055524920717565727920666f72206e6f60008201527f6e6578697374656e7420746f6b656e0000000000000000000000000000000000602082015250565b7f4552433732313a20617070726f76616c20746f2063757272656e74206f776e6560008201527f7200000000000000000000000000000000000000000000000000000000000000602082015250565b7f4552433732313a207472616e736665722063616c6c6572206973206e6f74206f60008201527f776e6572206e6f7220617070726f766564000000000000000000000000000000602082015250565b612d8581612632565b8114612d9057600080fd5b50565b612d9c81612644565b8114612da757600080fd5b50565b612db381612650565b8114612dbe57600080fd5b50565b612dca8161269c565b8114612dd557600080fd5b5056fea2646970667358221220761d65d5010e23445771f002d2522cc9ef8c7601c01f37d265ed067e5c4fa6ce64736f6c63430008060033",
  "linkReferences": {},
  "deployedLinkReferences": {}
}